{
  "_format": "hh-sol-artifact-1",
  "contractName": "Trustless",
  "sourceName": "contracts/Trustless.sol",
  "abi": [
    {
      "inputs": [],
      "stateMutability": "nonpayable",
      "type": "constructor"
    },
    {
      "inputs": [],
      "name": "OnlySimulatedBackend",
      "type": "error"
    },
    {
      "anonymous": false,
      "inputs": [
        {
          "indexed": true,
          "internalType": "address",
          "name": "account",
          "type": "address"
        },
        {
          "indexed": true,
          "internalType": "address",
          "name": "operator",
          "type": "address"
        },
        {
          "indexed": false,
          "internalType": "bool",
          "name": "approved",
          "type": "bool"
        }
      ],
      "name": "ApprovalForAll",
      "type": "event"
    },
    {
      "anonymous": false,
      "inputs": [
        {
          "indexed": true,
          "internalType": "address",
          "name": "contributor",
          "type": "address"
        },
        {
          "indexed": false,
          "internalType": "uint256",
          "name": "project",
          "type": "uint256"
        },
        {
          "indexed": false,
          "internalType": "uint256",
          "name": "amount",
          "type": "uint256"
        }
      ],
      "name": "Contribution",
      "type": "event"
    },
    {
      "anonymous": false,
      "inputs": [
        {
          "indexed": true,
          "internalType": "address",
          "name": "issuedTo",
          "type": "address"
        },
        {
          "indexed": false,
          "internalType": "uint256",
          "name": "project",
          "type": "uint256"
        },
        {
          "indexed": false,
          "internalType": "uint256",
          "name": "quantity",
          "type": "uint256"
        }
      ],
      "name": "FundsReleased",
      "type": "event"
    },
    {
      "anonymous": false,
      "inputs": [
        {
          "indexed": true,
          "internalType": "address",
          "name": "fundraiser",
          "type": "address"
        },
        {
          "indexed": false,
          "internalType": "uint256",
          "name": "project",
          "type": "uint256"
        },
        {
          "indexed": false,
          "internalType": "uint256",
          "name": "amount",
          "type": "uint256"
        }
      ],
      "name": "GoalAchieved",
      "type": "event"
    },
    {
      "anonymous": false,
      "inputs": [
        {
          "indexed": false,
          "internalType": "uint256",
          "name": "project",
          "type": "uint256"
        },
        {
          "indexed": false,
          "internalType": "uint256",
          "name": "amount",
          "type": "uint256"
        }
      ],
      "name": "MilestoneAchieved",
      "type": "event"
    },
    {
      "anonymous": false,
      "inputs": [
        {
          "indexed": true,
          "internalType": "address",
          "name": "previousOwner",
          "type": "address"
        },
        {
          "indexed": true,
          "internalType": "address",
          "name": "newOwner",
          "type": "address"
        }
      ],
      "name": "OwnershipTransferred",
      "type": "event"
    },
    {
      "anonymous": false,
      "inputs": [
        {
          "indexed": false,
          "internalType": "uint256",
          "name": "project",
          "type": "uint256"
        }
      ],
      "name": "ProjectCancelled",
      "type": "event"
    },
    {
      "anonymous": false,
      "inputs": [
        {
          "indexed": true,
          "internalType": "address",
          "name": "fundraiser",
          "type": "address"
        },
        {
          "indexed": false,
          "internalType": "uint256",
          "name": "project",
          "type": "uint256"
        },
        {
          "indexed": false,
          "internalType": "uint256",
          "name": "amount",
          "type": "uint256"
        }
      ],
      "name": "ProjectCreated",
      "type": "event"
    },
    {
      "anonymous": false,
      "inputs": [
        {
          "indexed": true,
          "internalType": "address",
          "name": "issuedTo",
          "type": "address"
        },
        {
          "indexed": false,
          "internalType": "uint256",
          "name": "project",
          "type": "uint256"
        },
        {
          "indexed": false,
          "internalType": "uint256",
          "name": "amount",
          "type": "uint256"
        }
      ],
      "name": "RefundIssued",
      "type": "event"
    },
    {
      "anonymous": false,
      "inputs": [
        {
          "indexed": true,
          "internalType": "address",
          "name": "issuedTo",
          "type": "address"
        },
        {
          "indexed": false,
          "internalType": "uint256",
          "name": "project",
          "type": "uint256"
        },
        {
          "indexed": false,
          "internalType": "uint256",
          "name": "quantity",
          "type": "uint256"
        }
      ],
      "name": "TokenIssued",
      "type": "event"
    },
    {
      "anonymous": false,
      "inputs": [
        {
          "indexed": true,
          "internalType": "address",
          "name": "operator",
          "type": "address"
        },
        {
          "indexed": true,
          "internalType": "address",
          "name": "from",
          "type": "address"
        },
        {
          "indexed": true,
          "internalType": "address",
          "name": "to",
          "type": "address"
        },
        {
          "indexed": false,
          "internalType": "uint256[]",
          "name": "ids",
          "type": "uint256[]"
        },
        {
          "indexed": false,
          "internalType": "uint256[]",
          "name": "values",
          "type": "uint256[]"
        }
      ],
      "name": "TransferBatch",
      "type": "event"
    },
    {
      "anonymous": false,
      "inputs": [
        {
          "indexed": true,
          "internalType": "address",
          "name": "operator",
          "type": "address"
        },
        {
          "indexed": true,
          "internalType": "address",
          "name": "from",
          "type": "address"
        },
        {
          "indexed": true,
          "internalType": "address",
          "name": "to",
          "type": "address"
        },
        {
          "indexed": false,
          "internalType": "uint256",
          "name": "id",
          "type": "uint256"
        },
        {
          "indexed": false,
          "internalType": "uint256",
          "name": "value",
          "type": "uint256"
        }
      ],
      "name": "TransferSingle",
      "type": "event"
    },
    {
      "anonymous": false,
      "inputs": [
        {
          "indexed": false,
          "internalType": "string",
          "name": "value",
          "type": "string"
        },
        {
          "indexed": true,
          "internalType": "uint256",
          "name": "id",
          "type": "uint256"
        }
      ],
      "name": "URI",
      "type": "event"
    },
    {
      "inputs": [
        {
          "internalType": "uint256",
          "name": "tokenId",
          "type": "uint256"
        }
      ],
      "name": "availableToWithdraw",
      "outputs": [
        {
          "internalType": "uint256",
          "name": "",
          "type": "uint256"
        }
      ],
      "stateMutability": "view",
      "type": "function"
    },
    {
      "inputs": [
        {
          "internalType": "address",
          "name": "account",
          "type": "address"
        },
        {
          "internalType": "uint256",
          "name": "id",
          "type": "uint256"
        }
      ],
      "name": "balanceOf",
      "outputs": [
        {
          "internalType": "uint256",
          "name": "",
          "type": "uint256"
        }
      ],
      "stateMutability": "view",
      "type": "function"
    },
    {
      "inputs": [
        {
          "internalType": "address[]",
          "name": "accounts",
          "type": "address[]"
        },
        {
          "internalType": "uint256[]",
          "name": "ids",
          "type": "uint256[]"
        }
      ],
      "name": "balanceOfBatch",
      "outputs": [
        {
          "internalType": "uint256[]",
          "name": "",
          "type": "uint256[]"
        }
      ],
      "stateMutability": "view",
      "type": "function"
    },
    {
      "inputs": [
        {
          "internalType": "uint256",
          "name": "tokenId",
          "type": "uint256"
        }
      ],
      "name": "cancel",
      "outputs": [],
      "stateMutability": "nonpayable",
      "type": "function"
    },
    {
      "inputs": [
        {
          "internalType": "bytes",
          "name": "checkData",
          "type": "bytes"
        }
      ],
      "name": "checkUpkeep",
      "outputs": [
        {
          "internalType": "bool",
          "name": "upkeepNeeded",
          "type": "bool"
        },
        {
          "internalType": "bytes",
          "name": "",
          "type": "bytes"
        }
      ],
      "stateMutability": "view",
      "type": "function"
    },
    {
      "inputs": [
        {
          "internalType": "uint256",
          "name": "tokenId",
          "type": "uint256"
        }
      ],
      "name": "contribute",
      "outputs": [],
      "stateMutability": "payable",
      "type": "function"
    },
    {
      "inputs": [
        {
          "internalType": "uint256",
          "name": "_goal",
          "type": "uint256"
        },
        {
          "internalType": "string",
          "name": "_tokenURI",
          "type": "string"
        },
        {
          "internalType": "uint256",
          "name": "_intervalTime",
          "type": "uint256"
        },
        {
          "internalType": "uint256",
          "name": "_milestones",
          "type": "uint256"
        }
      ],
      "name": "create",
      "outputs": [
        {
          "internalType": "uint256",
          "name": "",
          "type": "uint256"
        }
      ],
      "stateMutability": "nonpayable",
      "type": "function"
    },
    {
      "inputs": [
        {
          "internalType": "uint256",
          "name": "tokenId",
          "type": "uint256"
        }
      ],
      "name": "fundraiser",
      "outputs": [
        {
          "internalType": "address",
          "name": "",
          "type": "address"
        }
      ],
      "stateMutability": "view",
      "type": "function"
    },
    {
      "inputs": [
        {
          "internalType": "uint256",
          "name": "tokenId",
          "type": "uint256"
        }
      ],
      "name": "isActive",
      "outputs": [
        {
          "internalType": "bool",
          "name": "",
          "type": "bool"
        }
      ],
      "stateMutability": "view",
      "type": "function"
    },
    {
      "inputs": [
        {
          "internalType": "address",
          "name": "account",
          "type": "address"
        },
        {
          "internalType": "address",
          "name": "operator",
          "type": "address"
        }
      ],
      "name": "isApprovedForAll",
      "outputs": [
        {
          "internalType": "bool",
          "name": "",
          "type": "bool"
        }
      ],
      "stateMutability": "view",
      "type": "function"
    },
    {
      "inputs": [
        {
          "internalType": "uint256",
          "name": "tokenId",
          "type": "uint256"
        }
      ],
      "name": "isFundraising",
      "outputs": [
        {
          "internalType": "bool",
          "name": "",
          "type": "bool"
        }
      ],
      "stateMutability": "view",
      "type": "function"
    },
    {
      "inputs": [
        {
          "internalType": "uint256",
          "name": "tokenId",
          "type": "uint256"
        }
      ],
      "name": "isTerminated",
      "outputs": [
        {
          "internalType": "bool",
          "name": "",
          "type": "bool"
        }
      ],
      "stateMutability": "view",
      "type": "function"
    },
    {
      "inputs": [
        {
          "internalType": "uint256",
          "name": "tokenId",
          "type": "uint256"
        }
      ],
      "name": "nextMilestone",
      "outputs": [
        {
          "internalType": "uint256",
          "name": "",
          "type": "uint256"
        }
      ],
      "stateMutability": "view",
      "type": "function"
    },
    {
      "inputs": [],
      "name": "owner",
      "outputs": [
        {
          "internalType": "address",
          "name": "",
          "type": "address"
        }
      ],
      "stateMutability": "view",
      "type": "function"
    },
    {
      "inputs": [
        {
          "internalType": "bytes",
          "name": "performData",
          "type": "bytes"
        }
      ],
      "name": "performUpkeep",
      "outputs": [],
      "stateMutability": "nonpayable",
      "type": "function"
    },
    {
      "inputs": [
        {
          "internalType": "uint256",
          "name": "tokenId",
          "type": "uint256"
        }
      ],
      "name": "projectBalance",
      "outputs": [
        {
          "internalType": "uint256",
          "name": "",
          "type": "uint256"
        }
      ],
      "stateMutability": "view",
      "type": "function"
    },
    {
      "inputs": [],
      "name": "projectCount",
      "outputs": [
        {
          "internalType": "uint256",
          "name": "",
          "type": "uint256"
        }
      ],
      "stateMutability": "view",
      "type": "function"
    },
    {
      "inputs": [
        {
          "internalType": "uint256",
          "name": "tokenId",
          "type": "uint256"
        }
      ],
      "name": "projectGoal",
      "outputs": [
        {
          "internalType": "uint256",
          "name": "",
          "type": "uint256"
        }
      ],
      "stateMutability": "view",
      "type": "function"
    },
    {
      "inputs": [
        {
          "internalType": "uint256",
          "name": "tokenId",
          "type": "uint256"
        }
      ],
      "name": "refund",
      "outputs": [],
      "stateMutability": "nonpayable",
      "type": "function"
    },
    {
      "inputs": [
        {
          "internalType": "uint256",
          "name": "tokenId",
          "type": "uint256"
        }
      ],
      "name": "refundBalance",
      "outputs": [
        {
          "internalType": "uint256",
          "name": "",
          "type": "uint256"
        }
      ],
      "stateMutability": "view",
      "type": "function"
    },
    {
      "inputs": [],
      "name": "renounceOwnership",
      "outputs": [],
      "stateMutability": "nonpayable",
      "type": "function"
    },
    {
      "inputs": [
        {
          "internalType": "address",
          "name": "from",
          "type": "address"
        },
        {
          "internalType": "address",
          "name": "to",
          "type": "address"
        },
        {
          "internalType": "uint256[]",
          "name": "ids",
          "type": "uint256[]"
        },
        {
          "internalType": "uint256[]",
          "name": "amounts",
          "type": "uint256[]"
        },
        {
          "internalType": "bytes",
          "name": "data",
          "type": "bytes"
        }
      ],
      "name": "safeBatchTransferFrom",
      "outputs": [],
      "stateMutability": "nonpayable",
      "type": "function"
    },
    {
      "inputs": [
        {
          "internalType": "address",
          "name": "from",
          "type": "address"
        },
        {
          "internalType": "address",
          "name": "to",
          "type": "address"
        },
        {
          "internalType": "uint256",
          "name": "id",
          "type": "uint256"
        },
        {
          "internalType": "uint256",
          "name": "amount",
          "type": "uint256"
        },
        {
          "internalType": "bytes",
          "name": "data",
          "type": "bytes"
        }
      ],
      "name": "safeTransferFrom",
      "outputs": [],
      "stateMutability": "nonpayable",
      "type": "function"
    },
    {
      "inputs": [
        {
          "internalType": "address",
          "name": "operator",
          "type": "address"
        },
        {
          "internalType": "bool",
          "name": "approved",
          "type": "bool"
        }
      ],
      "name": "setApprovalForAll",
      "outputs": [],
      "stateMutability": "nonpayable",
      "type": "function"
    },
    {
      "inputs": [
        {
          "internalType": "bytes4",
          "name": "interfaceId",
          "type": "bytes4"
        }
      ],
      "name": "supportsInterface",
      "outputs": [
        {
          "internalType": "bool",
          "name": "",
          "type": "bool"
        }
      ],
      "stateMutability": "view",
      "type": "function"
    },
    {
      "inputs": [
        {
          "internalType": "address",
          "name": "newOwner",
          "type": "address"
        }
      ],
      "name": "transferOwnership",
      "outputs": [],
      "stateMutability": "nonpayable",
      "type": "function"
    },
    {
      "inputs": [
        {
          "internalType": "uint256",
          "name": "tokenId",
          "type": "uint256"
        }
      ],
      "name": "uri",
      "outputs": [
        {
          "internalType": "string",
          "name": "",
          "type": "string"
        }
      ],
      "stateMutability": "view",
      "type": "function"
    },
    {
      "inputs": [
        {
          "internalType": "uint256",
          "name": "tokenId",
          "type": "uint256"
        }
      ],
      "name": "withdrawFunds",
      "outputs": [],
      "stateMutability": "nonpayable",
      "type": "function"
    },
    {
      "stateMutability": "payable",
      "type": "receive"
    }
  ],
  "bytecode": "0x60806040526040518060200160405280600081525060039081620000249190620003d8565b503480156200003257600080fd5b506040518060200160405280600081525062000054816200007b60201b60201c565b5062000075620000696200009060201b60201c565b6200009860201b60201c565b620004bf565b80600290816200008c9190620003d8565b5050565b600033905090565b6000600560009054906101000a900473ffffffffffffffffffffffffffffffffffffffff16905081600560006101000a81548173ffffffffffffffffffffffffffffffffffffffff021916908373ffffffffffffffffffffffffffffffffffffffff1602179055508173ffffffffffffffffffffffffffffffffffffffff168173ffffffffffffffffffffffffffffffffffffffff167f8be0079c531659141344cd1fd0a4f28419497f9722a3daafe3b4186f6b6457e060405160405180910390a35050565b600081519050919050565b7f4e487b7100000000000000000000000000000000000000000000000000000000600052604160045260246000fd5b7f4e487b7100000000000000000000000000000000000000000000000000000000600052602260045260246000fd5b60006002820490506001821680620001e057607f821691505b602082108103620001f657620001f562000198565b5b50919050565b60008190508160005260206000209050919050565b60006020601f8301049050919050565b600082821b905092915050565b600060088302620002607fffffffffffffffffffffffffffffffffffffffffffffffffffffffffffffffff8262000221565b6200026c868362000221565b95508019841693508086168417925050509392505050565b6000819050919050565b6000819050919050565b6000620002b9620002b3620002ad8462000284565b6200028e565b62000284565b9050919050565b6000819050919050565b620002d58362000298565b620002ed620002e482620002c0565b8484546200022e565b825550505050565b600090565b62000304620002f5565b62000311818484620002ca565b505050565b5b8181101562000339576200032d600082620002fa565b60018101905062000317565b5050565b601f82111562000388576200035281620001fc565b6200035d8462000211565b810160208510156200036d578190505b620003856200037c8562000211565b83018262000316565b50505b505050565b600082821c905092915050565b6000620003ad600019846008026200038d565b1980831691505092915050565b6000620003c883836200039a565b9150826002028217905092915050565b620003e3826200015e565b67ffffffffffffffff811115620003ff57620003fe62000169565b5b6200040b8254620001c7565b620004188282856200033d565b600060209050601f8311600181146200045057600084156200043b578287015190505b620004478582620003ba565b865550620004b7565b601f1984166200046086620001fc565b60005b828110156200048a5784890151825560018201915060208501945060208101905062000463565b86831015620004aa5784890151620004a6601f8916826200039a565b8355505b6001600288020188555050505b505050505050565b61570780620004cf6000396000f3fe6080604052600436106101ba5760003560e01c806382afd23b116100ec578063c93520e31161008a578063e985e9c511610064578063e985e9c51461069c578063f242432a146106d9578063f2fde38b14610702578063fb3490781461072b576101c1565b8063c93520e3146105e5578063d460fb4a14610622578063db1faf9e1461065f576101c1565b8063ad36d6cc116100c6578063ad36d6cc14610512578063bd45a0a91461054f578063c04b45e91461058c578063c1cbbca7146105c9576101c1565b806382afd23b146104815780638da5cb5b146104be578063a22cb465146104e9576101c1565b806340e58ee5116101595780634e1273f4116101335780634e1273f4146103b25780634f500947146103ef5780636e04ff0d1461042c578063715018a61461046a576101c1565b806340e58ee5146103235780634585e33b1461034c5780634d02fe6f14610375576101c1565b8063155dd5ee11610195578063155dd5ee1461027d578063278ecde1146102a65780632eb2c2d6146102cf57806336fbad26146102f8576101c1565b8062fdd58e146101c657806301ffc9a7146102035780630e89341c14610240576101c1565b366101c157005b600080fd5b3480156101d257600080fd5b506101ed60048036038101906101e8919061360a565b610768565b6040516101fa9190613659565b60405180910390f35b34801561020f57600080fd5b5061022a600480360381019061022591906136cc565b610830565b6040516102379190613714565b60405180910390f35b34801561024c57600080fd5b506102676004803603810190610262919061372f565b610912565b60405161027491906137ec565b60405180910390f35b34801561028957600080fd5b506102a4600480360381019061029f919061372f565b6109f7565b005b3480156102b257600080fd5b506102cd60048036038101906102c8919061372f565b610c2e565b005b3480156102db57600080fd5b506102f660048036038101906102f19190613a0b565b610e07565b005b34801561030457600080fd5b5061030d610ea8565b60405161031a9190613659565b60405180910390f35b34801561032f57600080fd5b5061034a6004803603810190610345919061372f565b610eae565b005b34801561035857600080fd5b50610373600480360381019061036e9190613b35565b610f2c565b005b34801561038157600080fd5b5061039c6004803603810190610397919061372f565b6111b7565b6040516103a99190613659565b60405180910390f35b3480156103be57600080fd5b506103d960048036038101906103d49190613c45565b6111d7565b6040516103e69190613d7b565b60405180910390f35b3480156103fb57600080fd5b506104166004803603810190610411919061372f565b6112f0565b6040516104239190613659565b60405180910390f35b34801561043857600080fd5b50610453600480360381019061044e9190613b35565b611310565b604051610461929190613df2565b60405180910390f35b34801561047657600080fd5b5061047f6113ea565b005b34801561048d57600080fd5b506104a860048036038101906104a3919061372f565b6113fe565b6040516104b59190613714565b60405180910390f35b3480156104ca57600080fd5b506104d361142b565b6040516104e09190613e31565b60405180910390f35b3480156104f557600080fd5b50610510600480360381019061050b9190613e78565b611455565b005b34801561051e57600080fd5b506105396004803603810190610534919061372f565b61146b565b6040516105469190613714565b60405180910390f35b34801561055b57600080fd5b5061057660048036038101906105719190613f59565b611498565b6040516105839190613659565b60405180910390f35b34801561059857600080fd5b506105b360048036038101906105ae919061372f565b6116dc565b6040516105c09190613659565b60405180910390f35b6105e360048036038101906105de919061372f565b611729565b005b3480156105f157600080fd5b5061060c6004803603810190610607919061372f565b611c58565b6040516106199190613714565b60405180910390f35b34801561062e57600080fd5b506106496004803603810190610644919061372f565b611c85565b6040516106569190613659565b60405180910390f35b34801561066b57600080fd5b506106866004803603810190610681919061372f565b611e60565b6040516106939190613e31565b60405180910390f35b3480156106a857600080fd5b506106c360048036038101906106be9190613fdc565b611ea0565b6040516106d09190613714565b60405180910390f35b3480156106e557600080fd5b5061070060048036038101906106fb919061401c565b611f34565b005b34801561070e57600080fd5b50610729600480360381019061072491906140b3565b611fd5565b005b34801561073757600080fd5b50610752600480360381019061074d919061372f565b612058565b60405161075f9190613659565b60405180910390f35b60008073ffffffffffffffffffffffffffffffffffffffff168373ffffffffffffffffffffffffffffffffffffffff16036107d8576040517f08c379a00000000000000000000000000000000000000000000000000000000081526004016107cf90614152565b60405180910390fd5b60008083815260200190815260200160002060008473ffffffffffffffffffffffffffffffffffffffff1673ffffffffffffffffffffffffffffffffffffffff16815260200190815260200160002054905092915050565b60007fd9b67a26000000000000000000000000000000000000000000000000000000007bffffffffffffffffffffffffffffffffffffffffffffffffffffffff1916827bffffffffffffffffffffffffffffffffffffffffffffffffffffffff191614806108fb57507f0e89341c000000000000000000000000000000000000000000000000000000007bffffffffffffffffffffffffffffffffffffffffffffffffffffffff1916827bffffffffffffffffffffffffffffffffffffffffffffffffffffffff1916145b8061090b575061090a82612078565b5b9050919050565b60606000600460008481526020019081526020016000208054610934906141a1565b80601f0160208091040260200160405190810160405280929190818152602001828054610960906141a1565b80156109ad5780601f10610982576101008083540402835291602001916109ad565b820191906000526020600020905b81548152906001019060200180831161099057829003601f168201915b5050505050905060008151116109cb576109c6836120e2565b6109ef565b6003816040516020016109df9291906142a6565b6040516020818303038152906040525b915050919050565b806008600082815260200190815260200160002060060160009054906101000a900473ffffffffffffffffffffffffffffffffffffffff1673ffffffffffffffffffffffffffffffffffffffff163373ffffffffffffffffffffffffffffffffffffffff1614610a9c576040517f08c379a0000000000000000000000000000000000000000000000000000000008152600401610a939061433c565b60405180910390fd5b6000600860008481526020019081526020016000206007015411610af5576040517f08c379a0000000000000000000000000000000000000000000000000000000008152600401610aec906143a8565b60405180910390fd5b6000600860008481526020019081526020016000206007015490506000600860008581526020019081526020016000206007018190555060003373ffffffffffffffffffffffffffffffffffffffff1682604051610b52906143f9565b60006040518083038185875af1925050503d8060008114610b8f576040519150601f19603f3d011682016040523d82523d6000602084013e610b94565b606091505b5050905080610bd8576040517f08c379a0000000000000000000000000000000000000000000000000000000008152600401610bcf9061445a565b60405180910390fd5b3373ffffffffffffffffffffffffffffffffffffffff167fc90c76155d237557f9162f07cd0da2ff40418cd82028c0e89535270fb9de51048584604051610c2092919061447a565b60405180910390a250505050565b806000610c3b3383610768565b11610c7b576040517f08c379a0000000000000000000000000000000000000000000000000000000008152600401610c7290614515565b60405180910390fd5b6008600083815260200190815260200160002060060160169054906101000a900460ff16610cde576040517f08c379a0000000000000000000000000000000000000000000000000000000008152600401610cd590614581565b60405180910390fd5b6000610cea3384610768565b90506000610cf784611c85565b9050610d04338584612176565b60003373ffffffffffffffffffffffffffffffffffffffff1682604051610d2a906143f9565b60006040518083038185875af1925050503d8060008114610d67576040519150601f19603f3d011682016040523d82523d6000602084013e610d6c565b606091505b5050905080610db0576040517f08c379a0000000000000000000000000000000000000000000000000000000008152600401610da79061445a565b60405180910390fd5b3373ffffffffffffffffffffffffffffffffffffffff167fc90c76155d237557f9162f07cd0da2ff40418cd82028c0e89535270fb9de51048685604051610df892919061447a565b60405180910390a25050505050565b610e0f6123bc565b73ffffffffffffffffffffffffffffffffffffffff168573ffffffffffffffffffffffffffffffffffffffff161480610e555750610e5485610e4f6123bc565b611ea0565b5b610e94576040517f08c379a0000000000000000000000000000000000000000000000000000000008152600401610e8b90614613565b60405180910390fd5b610ea185858585856123c4565b5050505050565b60075481565b610eb66126e5565b60006008600083815260200190815260200160002060060160146101000a81548160ff02191690831515021790555060016008600083815260200190815260200160002060060160166101000a81548160ff021916908315150217905550610f2881600661276390919063ffffffff16565b5050565b6000828290610f3b9190614655565b60001c9050600060086000838152602001908152602001600020604051806101600160405290816000820154815260200160018201548152602001600282015481526020016003820154815260200160048201548152602001600582015481526020016006820160009054906101000a900473ffffffffffffffffffffffffffffffffffffffff1673ffffffffffffffffffffffffffffffffffffffff1673ffffffffffffffffffffffffffffffffffffffff1681526020016006820160149054906101000a900460ff161515151581526020016006820160159054906101000a900460ff161515151581526020016006820160169054906101000a900460ff1615151515815260200160078201548152505090508060e0015180156110645750806101000151155b156111b157600081606001518260a0015161107f9190614712565b9050806008600085815260200190815260200160002060050160008282546110a79190614743565b92505081905550806008600085815260200190815260200160002060070160008282546110d49190614777565b9250508190555060016008600085815260200190815260200160002060030160008282546111029190614743565b925050819055504260086000858152602001908152602001600020600201819055506001826060015110156111765760006008600085815260200190815260200160002060060160146101000a81548160ff02191690831515021790555061117483600661276390919063ffffffff16565b505b7fef71bb2c18b916e2735c6d7bde267d92271147307baf10ba7a3e9b9cb3a880b483826040516111a792919061447a565b60405180910390a1505b50505050565b600060086000838152602001908152602001600020600701549050919050565b6060815183511461121d576040517f08c379a00000000000000000000000000000000000000000000000000000000081526004016112149061481d565b60405180910390fd5b6000835167ffffffffffffffff81111561123a57611239613813565b5b6040519080825280602002602001820160405280156112685781602001602082028036833780820191505090505b50905060005b84518110156112e5576112b585828151811061128d5761128c61483d565b5b60200260200101518583815181106112a8576112a761483d565b5b6020026020010151610768565b8282815181106112c8576112c761483d565b5b602002602001018181525050806112de9061486c565b905061126e565b508091505092915050565b600060086000838152602001908152602001600020600401549050919050565b6000606060005b6113216006612798565b81101561139057600061133e8260066127a990919063ffffffff16565b9050611349816116dc565b421061137c5760018160405160200161136291906148d5565b6040516020818303038152906040529350935050506113e3565b5080806113889061486c565b915050611317565b506000848481818080601f016020809104026020016040519081016040528093929190818152602001838380828437600081840152601f19601f8201169050808301925050505050505090509050915091505b9250929050565b6113f26126e5565b6113fc600061281e565b565b60006008600083815260200190815260200160002060060160149054906101000a900460ff169050919050565b6000600560009054906101000a900473ffffffffffffffffffffffffffffffffffffffff16905090565b6114676114606123bc565b83836128e4565b5050565b60006008600083815260200190815260200160002060060160169054906101000a900460ff169050919050565b60008085116114dc576040517f08c379a00000000000000000000000000000000000000000000000000000000081526004016114d390614962565b60405180910390fd5b600760008154809291906114ef9061486c565b919050555060006040518061016001604052806007548152602001858152602001428152602001848152602001878152602001600081526020013373ffffffffffffffffffffffffffffffffffffffff1681526020016001151581526020016001151581526020016000151581526020016000815250905061157360075486612a50565b80600860006007548152602001908152602001600020600082015181600001556020820151816001015560408201518160020155606082015181600301556080820151816004015560a0820151816005015560c08201518160060160006101000a81548173ffffffffffffffffffffffffffffffffffffffff021916908373ffffffffffffffffffffffffffffffffffffffff16021790555060e08201518160060160146101000a81548160ff0219169083151502179055506101008201518160060160156101000a81548160ff0219169083151502179055506101208201518160060160166101000a81548160ff02191690831515021790555061014082015181600701559050503373ffffffffffffffffffffffffffffffffffffffff167f142e33e8ca08dd930acf904a42633a4d41d34f15ccb4bd31bee212de71def2e7600754886040516116c692919061447a565b60405180910390a2600754915050949350505050565b6000603c60086000848152602001908152602001600020600101546117019190614982565b60086000848152602001908152602001600020600201546117229190614777565b9050919050565b80600060086000838152602001908152602001600020604051806101600160405290816000820154815260200160018201548152602001600282015481526020016003820154815260200160048201548152602001600582015481526020016006820160009054906101000a900473ffffffffffffffffffffffffffffffffffffffff1673ffffffffffffffffffffffffffffffffffffffff1673ffffffffffffffffffffffffffffffffffffffff1681526020016006820160149054906101000a900460ff161515151581526020016006820160159054906101000a900460ff161515151581526020016006820160169054906101000a900460ff161515151581526020016007820154815250509050806101000151801561184d57508060e001515b61188c576040517f08c379a000000000000000000000000000000000000000000000000000000000815260040161188390614a10565b60405180910390fd5b80608001518160a00151106118d6576040517f08c379a00000000000000000000000000000000000000000000000000000000081526004016118cd90614a7c565b60405180910390fd5b600060086000858152602001908152602001600020604051806101600160405290816000820154815260200160018201548152602001600282015481526020016003820154815260200160048201548152602001600582015481526020016006820160009054906101000a900473ffffffffffffffffffffffffffffffffffffffff1673ffffffffffffffffffffffffffffffffffffffff1673ffffffffffffffffffffffffffffffffffffffff1681526020016006820160149054906101000a900460ff161515151581526020016006820160159054906101000a900460ff161515151581526020016006820160169054906101000a900460ff1615151515815260200160078201548152505090508060c0015173ffffffffffffffffffffffffffffffffffffffff163373ffffffffffffffffffffffffffffffffffffffff1603611a58576040517f08c379a0000000000000000000000000000000000000000000000000000000008152600401611a4f90614b0e565b60405180910390fd5b662386f26fc10000341015611aa2576040517f08c379a0000000000000000000000000000000000000000000000000000000008152600401611a9990614ba0565b60405180910390fd5b34600860008681526020019081526020016000206005016000828254611ac89190614777565b925050819055503373ffffffffffffffffffffffffffffffffffffffff167f5f7675b09617d2c9fa4fd13058ee5877a9538f626b0308816736e83748a450408534604051611b1792919061447a565b60405180910390a26000341115611b9457611b4333853460405180602001604052806000815250612ab5565b3373ffffffffffffffffffffffffffffffffffffffff167f578e84976fed49c2de58e2642ded3fef6873a4b6d6104e8fee9897c41a5382108534604051611b8b92919061447a565b60405180910390a25b8060800151600860008681526020019081526020016000206005015410611c525760006008600086815260200190815260200160002060060160156101000a81548160ff021916908315150217905550611bf8846006612c6590919063ffffffff16565b508060c0015173ffffffffffffffffffffffffffffffffffffffff167f9540b262989b3936804f49dd100636273c60cc60a64210f2b53df568703ddc84858360800151604051611c4992919061447a565b60405180910390a25b50505050565b60006008600083815260200190815260200160002060060160159054906101000a900460ff169050919050565b60006008600083815260200190815260200160002060060160169054906101000a900460ff16611cea576040517f08c379a0000000000000000000000000000000000000000000000000000000008152600401611ce190614581565b60405180910390fd5b6000611cf63384610768565b905060008060086000868152602001908152602001600020604051806101600160405290816000820154815260200160018201548152602001600282015481526020016003820154815260200160048201548152602001600582015481526020016006820160009054906101000a900473ffffffffffffffffffffffffffffffffffffffff1673ffffffffffffffffffffffffffffffffffffffff1673ffffffffffffffffffffffffffffffffffffffff1681526020016006820160149054906101000a900460ff161515151581526020016006820160159054906101000a900460ff161515151581526020016006820160169054906101000a900460ff16151515158152602001600782015481525050905080608001518160a001511015611e5157600081608001518260a00151611e2f9190614712565b905060648482611e3f9190614982565b611e499190614712565b925050611e55565b8291505b819350505050919050565b60006008600083815260200190815260200160002060060160009054906101000a900473ffffffffffffffffffffffffffffffffffffffff169050919050565b6000600160008473ffffffffffffffffffffffffffffffffffffffff1673ffffffffffffffffffffffffffffffffffffffff16815260200190815260200160002060008373ffffffffffffffffffffffffffffffffffffffff1673ffffffffffffffffffffffffffffffffffffffff16815260200190815260200160002060009054906101000a900460ff16905092915050565b611f3c6123bc565b73ffffffffffffffffffffffffffffffffffffffff168573ffffffffffffffffffffffffffffffffffffffff161480611f825750611f8185611f7c6123bc565b611ea0565b5b611fc1576040517f08c379a0000000000000000000000000000000000000000000000000000000008152600401611fb890614613565b60405180910390fd5b611fce8585858585612cb4565b5050505050565b611fdd6126e5565b600073ffffffffffffffffffffffffffffffffffffffff168173ffffffffffffffffffffffffffffffffffffffff160361204c576040517f08c379a000000000000000000000000000000000000000000000000000000000815260040161204390614c32565b60405180910390fd5b6120558161281e565b50565b600060086000838152602001908152602001600020600501549050919050565b60007f01ffc9a7000000000000000000000000000000000000000000000000000000007bffffffffffffffffffffffffffffffffffffffffffffffffffffffff1916827bffffffffffffffffffffffffffffffffffffffffffffffffffffffff1916149050919050565b6060600280546120f1906141a1565b80601f016020809104026020016040519081016040528092919081815260200182805461211d906141a1565b801561216a5780601f1061213f5761010080835404028352916020019161216a565b820191906000526020600020905b81548152906001019060200180831161214d57829003601f168201915b50505050509050919050565b600073ffffffffffffffffffffffffffffffffffffffff168373ffffffffffffffffffffffffffffffffffffffff16036121e5576040517f08c379a00000000000000000000000000000000000000000000000000000000081526004016121dc90614cc4565b60405180910390fd5b60006121ef6123bc565b905060006121fc84612f4f565b9050600061220984612f4f565b905061222983876000858560405180602001604052806000815250612fc9565b600080600087815260200190815260200160002060008873ffffffffffffffffffffffffffffffffffffffff1673ffffffffffffffffffffffffffffffffffffffff168152602001908152602001600020549050848110156122c0576040517f08c379a00000000000000000000000000000000000000000000000000000000081526004016122b790614d56565b60405180910390fd5b84810360008088815260200190815260200160002060008973ffffffffffffffffffffffffffffffffffffffff1673ffffffffffffffffffffffffffffffffffffffff16815260200190815260200160002081905550600073ffffffffffffffffffffffffffffffffffffffff168773ffffffffffffffffffffffffffffffffffffffff168573ffffffffffffffffffffffffffffffffffffffff167fc3d58168c5ae7397731d063d5bbf3d657854427343f4c083240f7aacaa2d0f62898960405161238d92919061447a565b60405180910390a46123b384886000868660405180602001604052806000815250612fd1565b50505050505050565b600033905090565b8151835114612408576040517f08c379a00000000000000000000000000000000000000000000000000000000081526004016123ff90614de8565b60405180910390fd5b600073ffffffffffffffffffffffffffffffffffffffff168473ffffffffffffffffffffffffffffffffffffffff1603612477576040517f08c379a000000000000000000000000000000000000000000000000000000000815260040161246e90614e7a565b60405180910390fd5b60006124816123bc565b9050612491818787878787612fc9565b60005b84518110156126425760008582815181106124b2576124b161483d565b5b6020026020010151905060008583815181106124d1576124d061483d565b5b60200260200101519050600080600084815260200190815260200160002060008b73ffffffffffffffffffffffffffffffffffffffff1673ffffffffffffffffffffffffffffffffffffffff16815260200190815260200160002054905081811015612572576040517f08c379a000000000000000000000000000000000000000000000000000000000815260040161256990614f0c565b60405180910390fd5b81810360008085815260200190815260200160002060008c73ffffffffffffffffffffffffffffffffffffffff1673ffffffffffffffffffffffffffffffffffffffff168152602001908152602001600020819055508160008085815260200190815260200160002060008b73ffffffffffffffffffffffffffffffffffffffff1673ffffffffffffffffffffffffffffffffffffffff16815260200190815260200160002060008282546126279190614777565b925050819055505050508061263b9061486c565b9050612494565b508473ffffffffffffffffffffffffffffffffffffffff168673ffffffffffffffffffffffffffffffffffffffff168273ffffffffffffffffffffffffffffffffffffffff167f4a39dc06d4c0dbc64b70af90fd698a233a518aa5d07e595d983b8c0526c8f7fb87876040516126b9929190614f2c565b60405180910390a46126cf818787878787612fd1565b6126dd818787878787612fd9565b505050505050565b6126ed6123bc565b73ffffffffffffffffffffffffffffffffffffffff1661270b61142b565b73ffffffffffffffffffffffffffffffffffffffff1614612761576040517f08c379a000000000000000000000000000000000000000000000000000000000815260040161275890614faf565b60405180910390fd5b565b60008061277084846131b0565b90506000811261278c576127848482613299565b915050612792565b60009150505b92915050565b600081600001805490509050919050565b60006127b483612798565b82106127f5576040517f08c379a00000000000000000000000000000000000000000000000000000000081526004016127ec9061501b565b60405180910390fd5b82600001828154811061280b5761280a61483d565b5b9060005260206000200154905092915050565b6000600560009054906101000a900473ffffffffffffffffffffffffffffffffffffffff16905081600560006101000a81548173ffffffffffffffffffffffffffffffffffffffff021916908373ffffffffffffffffffffffffffffffffffffffff1602179055508173ffffffffffffffffffffffffffffffffffffffff168173ffffffffffffffffffffffffffffffffffffffff167f8be0079c531659141344cd1fd0a4f28419497f9722a3daafe3b4186f6b6457e060405160405180910390a35050565b8173ffffffffffffffffffffffffffffffffffffffff168373ffffffffffffffffffffffffffffffffffffffff1603612952576040517f08c379a0000000000000000000000000000000000000000000000000000000008152600401612949906150ad565b60405180910390fd5b80600160008573ffffffffffffffffffffffffffffffffffffffff1673ffffffffffffffffffffffffffffffffffffffff16815260200190815260200160002060008473ffffffffffffffffffffffffffffffffffffffff1673ffffffffffffffffffffffffffffffffffffffff16815260200190815260200160002060006101000a81548160ff0219169083151502179055508173ffffffffffffffffffffffffffffffffffffffff168373ffffffffffffffffffffffffffffffffffffffff167f17307eab39ab6107e8899845ad3d59bd9653f200f220920489ca2b5937696c3183604051612a439190613714565b60405180910390a3505050565b80600460008481526020019081526020016000209081612a709190615257565b50817f6bb7ff708619ba0610cba295a58592e0451dee2622938c8755667688daf3529b612a9c84610912565b604051612aa991906137ec565b60405180910390a25050565b600073ffffffffffffffffffffffffffffffffffffffff168473ffffffffffffffffffffffffffffffffffffffff1603612b24576040517f08c379a0000000000000000000000000000000000000000000000000000000008152600401612b1b9061539b565b60405180910390fd5b6000612b2e6123bc565b90506000612b3b85612f4f565b90506000612b4885612f4f565b9050612b5983600089858589612fc9565b8460008088815260200190815260200160002060008973ffffffffffffffffffffffffffffffffffffffff1673ffffffffffffffffffffffffffffffffffffffff1681526020019081526020016000206000828254612bb89190614777565b925050819055508673ffffffffffffffffffffffffffffffffffffffff16600073ffffffffffffffffffffffffffffffffffffffff168473ffffffffffffffffffffffffffffffffffffffff167fc3d58168c5ae7397731d063d5bbf3d657854427343f4c083240f7aacaa2d0f628989604051612c3692919061447a565b60405180910390a4612c4d83600089858589612fd1565b612c5c83600089898989613351565b50505050505050565b6000612c718383613528565b612ca9578260000182908060018154018082558091505060019003906000526020600020016000909190919091505560019050612cae565b600090505b92915050565b600073ffffffffffffffffffffffffffffffffffffffff168473ffffffffffffffffffffffffffffffffffffffff1603612d23576040517f08c379a0000000000000000000000000000000000000000000000000000000008152600401612d1a90614e7a565b60405180910390fd5b6000612d2d6123bc565b90506000612d3a85612f4f565b90506000612d4785612f4f565b9050612d57838989858589612fc9565b600080600088815260200190815260200160002060008a73ffffffffffffffffffffffffffffffffffffffff1673ffffffffffffffffffffffffffffffffffffffff16815260200190815260200160002054905085811015612dee576040517f08c379a0000000000000000000000000000000000000000000000000000000008152600401612de590614f0c565b60405180910390fd5b85810360008089815260200190815260200160002060008b73ffffffffffffffffffffffffffffffffffffffff1673ffffffffffffffffffffffffffffffffffffffff168152602001908152602001600020819055508560008089815260200190815260200160002060008a73ffffffffffffffffffffffffffffffffffffffff1673ffffffffffffffffffffffffffffffffffffffff1681526020019081526020016000206000828254612ea39190614777565b925050819055508773ffffffffffffffffffffffffffffffffffffffff168973ffffffffffffffffffffffffffffffffffffffff168573ffffffffffffffffffffffffffffffffffffffff167fc3d58168c5ae7397731d063d5bbf3d657854427343f4c083240f7aacaa2d0f628a8a604051612f2092919061447a565b60405180910390a4612f36848a8a86868a612fd1565b612f44848a8a8a8a8a613351565b505050505050505050565b60606000600167ffffffffffffffff811115612f6e57612f6d613813565b5b604051908082528060200260200182016040528015612f9c5781602001602082028036833780820191505090505b5090508281600081518110612fb457612fb361483d565b5b60200260200101818152505080915050919050565b505050505050565b505050505050565b612ff88473ffffffffffffffffffffffffffffffffffffffff1661353f565b156131a8578373ffffffffffffffffffffffffffffffffffffffff1663bc197c8187878686866040518663ffffffff1660e01b815260040161303e9594939291906153bb565b6020604051808303816000875af192505050801561307a57506040513d601f19601f820116820180604052508101906130779190615438565b60015b61311f57613086615472565b806308c379a0036130e2575061309a615494565b806130a557506130e4565b806040517f08c379a00000000000000000000000000000000000000000000000000000000081526004016130d991906137ec565b60405180910390fd5b505b6040517f08c379a000000000000000000000000000000000000000000000000000000000815260040161311690615596565b60405180910390fd5b63bc197c8160e01b7bffffffffffffffffffffffffffffffffffffffffffffffffffffffff1916817bffffffffffffffffffffffffffffffffffffffffffffffffffffffff1916146131a6576040517f08c379a000000000000000000000000000000000000000000000000000000000815260040161319d90615628565b60405180910390fd5b505b505050505050565b600080600090505b6131c184612798565b81101561326e57828460000182815481106131df576131de61483d565b5b9060005260206000200154036131f85780915050613293565b600081600161320687612798565b6132109190614743565b61321a9190614743565b9050838560000182815481106132335761323261483d565b5b90600052602060002001540361324d578092505050613293565b80821061325a575061326e565b5080806132669061486c565b9150506131b8565b507fffffffffffffffffffffffffffffffffffffffffffffffffffffffffffffffff90505b92915050565b60006132a483612798565b82101561334657600060016132b885612798565b6132c29190614743565b905080831015613312578360000181815481106132e2576132e161483d565b5b90600052602060002001548460000184815481106133035761330261483d565b5b90600052602060002001819055505b8360000180548061332657613325615648565b5b60019003818190600052602060002001600090559055600191505061334b565b600090505b92915050565b6133708473ffffffffffffffffffffffffffffffffffffffff1661353f565b15613520578373ffffffffffffffffffffffffffffffffffffffff1663f23a6e6187878686866040518663ffffffff1660e01b81526004016133b6959493929190615677565b6020604051808303816000875af19250505080156133f257506040513d601f19601f820116820180604052508101906133ef9190615438565b60015b613497576133fe615472565b806308c379a00361345a5750613412615494565b8061341d575061345c565b806040517f08c379a000000000000000000000000000000000000000000000000000000000815260040161345191906137ec565b60405180910390fd5b505b6040517f08c379a000000000000000000000000000000000000000000000000000000000815260040161348e90615596565b60405180910390fd5b63f23a6e6160e01b7bffffffffffffffffffffffffffffffffffffffffffffffffffffffff1916817bffffffffffffffffffffffffffffffffffffffffffffffffffffffff19161461351e576040517f08c379a000000000000000000000000000000000000000000000000000000000815260040161351590615628565b60405180910390fd5b505b505050505050565b60008061353584846131b0565b1215905092915050565b6000808273ffffffffffffffffffffffffffffffffffffffff163b119050919050565b6000604051905090565b600080fd5b600080fd5b600073ffffffffffffffffffffffffffffffffffffffff82169050919050565b60006135a182613576565b9050919050565b6135b181613596565b81146135bc57600080fd5b50565b6000813590506135ce816135a8565b92915050565b6000819050919050565b6135e7816135d4565b81146135f257600080fd5b50565b600081359050613604816135de565b92915050565b600080604083850312156136215761362061356c565b5b600061362f858286016135bf565b9250506020613640858286016135f5565b9150509250929050565b613653816135d4565b82525050565b600060208201905061366e600083018461364a565b92915050565b60007fffffffff0000000000000000000000000000000000000000000000000000000082169050919050565b6136a981613674565b81146136b457600080fd5b50565b6000813590506136c6816136a0565b92915050565b6000602082840312156136e2576136e161356c565b5b60006136f0848285016136b7565b91505092915050565b60008115159050919050565b61370e816136f9565b82525050565b60006020820190506137296000830184613705565b92915050565b6000602082840312156137455761374461356c565b5b6000613753848285016135f5565b91505092915050565b600081519050919050565b600082825260208201905092915050565b60005b8381101561379657808201518184015260208101905061377b565b60008484015250505050565b6000601f19601f8301169050919050565b60006137be8261375c565b6137c88185613767565b93506137d8818560208601613778565b6137e1816137a2565b840191505092915050565b6000602082019050818103600083015261380681846137b3565b905092915050565b600080fd5b7f4e487b7100000000000000000000000000000000000000000000000000000000600052604160045260246000fd5b61384b826137a2565b810181811067ffffffffffffffff8211171561386a57613869613813565b5b80604052505050565b600061387d613562565b90506138898282613842565b919050565b600067ffffffffffffffff8211156138a9576138a8613813565b5b602082029050602081019050919050565b600080fd5b60006138d26138cd8461388e565b613873565b905080838252602082019050602084028301858111156138f5576138f46138ba565b5b835b8181101561391e578061390a88826135f5565b8452602084019350506020810190506138f7565b5050509392505050565b600082601f83011261393d5761393c61380e565b5b813561394d8482602086016138bf565b91505092915050565b600080fd5b600067ffffffffffffffff82111561397657613975613813565b5b61397f826137a2565b9050602081019050919050565b82818337600083830152505050565b60006139ae6139a98461395b565b613873565b9050828152602081018484840111156139ca576139c9613956565b5b6139d584828561398c565b509392505050565b600082601f8301126139f2576139f161380e565b5b8135613a0284826020860161399b565b91505092915050565b600080600080600060a08688031215613a2757613a2661356c565b5b6000613a35888289016135bf565b9550506020613a46888289016135bf565b945050604086013567ffffffffffffffff811115613a6757613a66613571565b5b613a7388828901613928565b935050606086013567ffffffffffffffff811115613a9457613a93613571565b5b613aa088828901613928565b925050608086013567ffffffffffffffff811115613ac157613ac0613571565b5b613acd888289016139dd565b9150509295509295909350565b600080fd5b60008083601f840112613af557613af461380e565b5b8235905067ffffffffffffffff811115613b1257613b11613ada565b5b602083019150836001820283011115613b2e57613b2d6138ba565b5b9250929050565b60008060208385031215613b4c57613b4b61356c565b5b600083013567ffffffffffffffff811115613b6a57613b69613571565b5b613b7685828601613adf565b92509250509250929050565b600067ffffffffffffffff821115613b9d57613b9c613813565b5b602082029050602081019050919050565b6000613bc1613bbc84613b82565b613873565b90508083825260208201905060208402830185811115613be457613be36138ba565b5b835b81811015613c0d5780613bf988826135bf565b845260208401935050602081019050613be6565b5050509392505050565b600082601f830112613c2c57613c2b61380e565b5b8135613c3c848260208601613bae565b91505092915050565b60008060408385031215613c5c57613c5b61356c565b5b600083013567ffffffffffffffff811115613c7a57613c79613571565b5b613c8685828601613c17565b925050602083013567ffffffffffffffff811115613ca757613ca6613571565b5b613cb385828601613928565b9150509250929050565b600081519050919050565b600082825260208201905092915050565b6000819050602082019050919050565b613cf2816135d4565b82525050565b6000613d048383613ce9565b60208301905092915050565b6000602082019050919050565b6000613d2882613cbd565b613d328185613cc8565b9350613d3d83613cd9565b8060005b83811015613d6e578151613d558882613cf8565b9750613d6083613d10565b925050600181019050613d41565b5085935050505092915050565b60006020820190508181036000830152613d958184613d1d565b905092915050565b600081519050919050565b600082825260208201905092915050565b6000613dc482613d9d565b613dce8185613da8565b9350613dde818560208601613778565b613de7816137a2565b840191505092915050565b6000604082019050613e076000830185613705565b8181036020830152613e198184613db9565b90509392505050565b613e2b81613596565b82525050565b6000602082019050613e466000830184613e22565b92915050565b613e55816136f9565b8114613e6057600080fd5b50565b600081359050613e7281613e4c565b92915050565b60008060408385031215613e8f57613e8e61356c565b5b6000613e9d858286016135bf565b9250506020613eae85828601613e63565b9150509250929050565b600067ffffffffffffffff821115613ed357613ed2613813565b5b613edc826137a2565b9050602081019050919050565b6000613efc613ef784613eb8565b613873565b905082815260208101848484011115613f1857613f17613956565b5b613f2384828561398c565b509392505050565b600082601f830112613f4057613f3f61380e565b5b8135613f50848260208601613ee9565b91505092915050565b60008060008060808587031215613f7357613f7261356c565b5b6000613f81878288016135f5565b945050602085013567ffffffffffffffff811115613fa257613fa1613571565b5b613fae87828801613f2b565b9350506040613fbf878288016135f5565b9250506060613fd0878288016135f5565b91505092959194509250565b60008060408385031215613ff357613ff261356c565b5b6000614001858286016135bf565b9250506020614012858286016135bf565b9150509250929050565b600080600080600060a086880312156140385761403761356c565b5b6000614046888289016135bf565b9550506020614057888289016135bf565b9450506040614068888289016135f5565b9350506060614079888289016135f5565b925050608086013567ffffffffffffffff81111561409a57614099613571565b5b6140a6888289016139dd565b9150509295509295909350565b6000602082840312156140c9576140c861356c565b5b60006140d7848285016135bf565b91505092915050565b7f455243313135353a2061646472657373207a65726f206973206e6f742061207660008201527f616c6964206f776e657200000000000000000000000000000000000000000000602082015250565b600061413c602a83613767565b9150614147826140e0565b604082019050919050565b6000602082019050818103600083015261416b8161412f565b9050919050565b7f4e487b7100000000000000000000000000000000000000000000000000000000600052602260045260246000fd5b600060028204905060018216806141b957607f821691505b6020821081036141cc576141cb614172565b5b50919050565b600081905092915050565b60008190508160005260206000209050919050565b600081546141ff816141a1565b61420981866141d2565b9450600182166000811461422457600181146142395761426c565b60ff198316865281151582028601935061426c565b614242856141dd565b60005b8381101561426457815481890152600182019150602081019050614245565b838801955050505b50505092915050565b60006142808261375c565b61428a81856141d2565b935061429a818560208601613778565b80840191505092915050565b60006142b282856141f2565b91506142be8284614275565b91508190509392505050565b7f4f6e6c79207468652066756e647261697365722063616e20657865637574652060008201527f74686973206d6574686f642e0000000000000000000000000000000000000000602082015250565b6000614326602c83613767565b9150614331826142ca565b604082019050919050565b6000602082019050818103600083015261435581614319565b9050919050565b7f4e6f2066756e647320617661696c61626c650000000000000000000000000000600082015250565b6000614392601283613767565b915061439d8261435c565b602082019050919050565b600060208201905081810360008301526143c181614385565b9050919050565b600081905092915050565b50565b60006143e36000836143c8565b91506143ee826143d3565b600082019050919050565b6000614404826143d6565b9150819050919050565b7f5472616e73666572206661696c65642e00000000000000000000000000000000600082015250565b6000614444601083613767565b915061444f8261440e565b602082019050919050565b6000602082019050818103600083015261447381614437565b9050919050565b600060408201905061448f600083018561364a565b61449c602083018461364a565b9392505050565b7f4f6e6c792074686520636f6e7472696275746f72732063616e2065786563757460008201527f652074686973206d6574686f642e000000000000000000000000000000000000602082015250565b60006144ff602e83613767565b915061450a826144a3565b604082019050919050565b6000602082019050818103600083015261452e816144f2565b9050919050565b7f50726f6a656374206973206e6f74207465726d696e6174656400000000000000600082015250565b600061456b601983613767565b915061457682614535565b602082019050919050565b6000602082019050818103600083015261459a8161455e565b9050919050565b7f455243313135353a2063616c6c6572206973206e6f7420746f6b656e206f776e60008201527f6572206e6f7220617070726f7665640000000000000000000000000000000000602082015250565b60006145fd602f83613767565b9150614608826145a1565b604082019050919050565b6000602082019050818103600083015261462c816145f0565b9050919050565b600082905092915050565b6000819050919050565b600082821b905092915050565b60006146618383614633565b8261466c813561463e565b925060208210156146ac576146a77fffffffffffffffffffffffffffffffffffffffffffffffffffffffffffffffff83602003600802614648565b831692505b505092915050565b7f4e487b7100000000000000000000000000000000000000000000000000000000600052601260045260246000fd5b7f4e487b7100000000000000000000000000000000000000000000000000000000600052601160045260246000fd5b600061471d826135d4565b9150614728836135d4565b925082614738576147376146b4565b5b828204905092915050565b600061474e826135d4565b9150614759836135d4565b9250828203905081811115614771576147706146e3565b5b92915050565b6000614782826135d4565b915061478d836135d4565b92508282019050808211156147a5576147a46146e3565b5b92915050565b7f455243313135353a206163636f756e747320616e6420696473206c656e67746860008201527f206d69736d617463680000000000000000000000000000000000000000000000602082015250565b6000614807602983613767565b9150614812826147ab565b604082019050919050565b60006020820190508181036000830152614836816147fa565b9050919050565b7f4e487b7100000000000000000000000000000000000000000000000000000000600052603260045260246000fd5b6000614877826135d4565b91507fffffffffffffffffffffffffffffffffffffffffffffffffffffffffffffffff82036148a9576148a86146e3565b5b600182019050919050565b6000819050919050565b6148cf6148ca826135d4565b6148b4565b82525050565b60006148e182846148be565b60208201915081905092915050565b7f46756e6472616973696e6720676f616c206d757374206265206772656174657260008201527f207468616e203000000000000000000000000000000000000000000000000000602082015250565b600061494c602783613767565b9150614957826148f0565b604082019050919050565b6000602082019050818103600083015261497b8161493f565b9050919050565b600061498d826135d4565b9150614998836135d4565b92508282026149a6816135d4565b915082820484148315176149bd576149bc6146e3565b5b5092915050565b7f46756e6472616973696e672063616d706169676e20697320636c6f7365640000600082015250565b60006149fa601e83613767565b9150614a05826149c4565b602082019050919050565b60006020820190508181036000830152614a29816149ed565b9050919050565b7f43616d706169676e20697320696e6163746976652e0000000000000000000000600082015250565b6000614a66601583613767565b9150614a7182614a30565b602082019050919050565b60006020820190508181036000830152614a9581614a59565b9050919050565b7f46756e647261697365722063616e6e6f7420636f6e7472696275746520746f2060008201527f6f776e2063616d706169676e0000000000000000000000000000000000000000602082015250565b6000614af8602c83613767565b9150614b0382614a9c565b604082019050919050565b60006020820190508181036000830152614b2781614aeb565b9050919050565b7f4d696e696d756d20636f6e747269627574696f6e20616d6f756e74206973203060008201527f2e30312045544800000000000000000000000000000000000000000000000000602082015250565b6000614b8a602783613767565b9150614b9582614b2e565b604082019050919050565b60006020820190508181036000830152614bb981614b7d565b9050919050565b7f4f776e61626c653a206e6577206f776e657220697320746865207a65726f206160008201527f6464726573730000000000000000000000000000000000000000000000000000602082015250565b6000614c1c602683613767565b9150614c2782614bc0565b604082019050919050565b60006020820190508181036000830152614c4b81614c0f565b9050919050565b7f455243313135353a206275726e2066726f6d20746865207a65726f206164647260008201527f6573730000000000000000000000000000000000000000000000000000000000602082015250565b6000614cae602383613767565b9150614cb982614c52565b604082019050919050565b60006020820190508181036000830152614cdd81614ca1565b9050919050565b7f455243313135353a206275726e20616d6f756e7420657863656564732062616c60008201527f616e636500000000000000000000000000000000000000000000000000000000602082015250565b6000614d40602483613767565b9150614d4b82614ce4565b604082019050919050565b60006020820190508181036000830152614d6f81614d33565b9050919050565b7f455243313135353a2069647320616e6420616d6f756e7473206c656e6774682060008201527f6d69736d61746368000000000000000000000000000000000000000000000000602082015250565b6000614dd2602883613767565b9150614ddd82614d76565b604082019050919050565b60006020820190508181036000830152614e0181614dc5565b9050919050565b7f455243313135353a207472616e7366657220746f20746865207a65726f20616460008201527f6472657373000000000000000000000000000000000000000000000000000000602082015250565b6000614e64602583613767565b9150614e6f82614e08565b604082019050919050565b60006020820190508181036000830152614e9381614e57565b9050919050565b7f455243313135353a20696e73756666696369656e742062616c616e636520666f60008201527f72207472616e7366657200000000000000000000000000000000000000000000602082015250565b6000614ef6602a83613767565b9150614f0182614e9a565b604082019050919050565b60006020820190508181036000830152614f2581614ee9565b9050919050565b60006040820190508181036000830152614f468185613d1d565b90508181036020830152614f5a8184613d1d565b90509392505050565b7f4f776e61626c653a2063616c6c6572206973206e6f7420746865206f776e6572600082015250565b6000614f99602083613767565b9150614fa482614f63565b602082019050919050565b60006020820190508181036000830152614fc881614f8c565b9050919050565b7f74686520696e646578206973206f7574206f6620626f756e6473000000000000600082015250565b6000615005601a83613767565b915061501082614fcf565b602082019050919050565b6000602082019050818103600083015261503481614ff8565b9050919050565b7f455243313135353a2073657474696e6720617070726f76616c2073746174757360008201527f20666f722073656c660000000000000000000000000000000000000000000000602082015250565b6000615097602983613767565b91506150a28261503b565b604082019050919050565b600060208201905081810360008301526150c68161508a565b9050919050565b60006020601f8301049050919050565b60006008830261510d7fffffffffffffffffffffffffffffffffffffffffffffffffffffffffffffffff82614648565b6151178683614648565b95508019841693508086168417925050509392505050565b6000819050919050565b600061515461514f61514a846135d4565b61512f565b6135d4565b9050919050565b6000819050919050565b61516e83615139565b61518261517a8261515b565b8484546150dd565b825550505050565b600090565b61519761518a565b6151a2818484615165565b505050565b5b818110156151c6576151bb60008261518f565b6001810190506151a8565b5050565b601f82111561520b576151dc816141dd565b6151e5846150cd565b810160208510156151f4578190505b615208615200856150cd565b8301826151a7565b50505b505050565b600082821c905092915050565b600061522e60001984600802615210565b1980831691505092915050565b6000615247838361521d565b9150826002028217905092915050565b6152608261375c565b67ffffffffffffffff81111561527957615278613813565b5b61528382546141a1565b61528e8282856151ca565b600060209050601f8311600181146152c157600084156152af578287015190505b6152b9858261523b565b865550615321565b601f1984166152cf866141dd565b60005b828110156152f7578489015182556001820191506020850194506020810190506152d2565b868310156153145784890151615310601f89168261521d565b8355505b6001600288020188555050505b505050505050565b7f455243313135353a206d696e7420746f20746865207a65726f2061646472657360008201527f7300000000000000000000000000000000000000000000000000000000000000602082015250565b6000615385602183613767565b915061539082615329565b604082019050919050565b600060208201905081810360008301526153b481615378565b9050919050565b600060a0820190506153d06000830188613e22565b6153dd6020830187613e22565b81810360408301526153ef8186613d1d565b905081810360608301526154038185613d1d565b905081810360808301526154178184613db9565b90509695505050505050565b600081519050615432816136a0565b92915050565b60006020828403121561544e5761544d61356c565b5b600061545c84828501615423565b91505092915050565b60008160e01c9050919050565b600060033d11156154915760046000803e61548e600051615465565b90505b90565b600060443d10615521576154a6613562565b60043d036004823e80513d602482011167ffffffffffffffff821117156154ce575050615521565b808201805167ffffffffffffffff8111156154ec5750505050615521565b80602083010160043d038501811115615509575050505050615521565b61551882602001850186613842565b82955050505050505b90565b7f455243313135353a207472616e7366657220746f206e6f6e204552433131353560008201527f526563656976657220696d706c656d656e746572000000000000000000000000602082015250565b6000615580603483613767565b915061558b82615524565b604082019050919050565b600060208201905081810360008301526155af81615573565b9050919050565b7f455243313135353a204552433131353552656365697665722072656a6563746560008201527f6420746f6b656e73000000000000000000000000000000000000000000000000602082015250565b6000615612602883613767565b915061561d826155b6565b604082019050919050565b6000602082019050818103600083015261564181615605565b9050919050565b7f4e487b7100000000000000000000000000000000000000000000000000000000600052603160045260246000fd5b600060a08201905061568c6000830188613e22565b6156996020830187613e22565b6156a6604083018661364a565b6156b3606083018561364a565b81810360808301526156c58184613db9565b9050969550505050505056fea264697066735822122092e5cda07584b091c4d2e955844e93e70ed5c47c8b543cb0f3935a8d3073bae964736f6c63430008110033",
  "linkReferences": {},
  "deployedLinkReferences": {}
}